{"abi":[{"type":"constructor","inputs":[{"name":"tokenAddress","type":"address","internalType":"address"},{"name":"initialHighAmountThreshold","type":"uint256","internalType":"uint256"}],"stateMutability":"nonpayable"},{"type":"function","name":"COOLDOWN_SECONDS","inputs":[],"outputs":[{"name":"","type":"uint256","internalType":"uint256"}],"stateMutability":"view"},{"type":"function","name":"canTransferNow","inputs":[{"name":"sender","type":"address","internalType":"address"},{"name":"recipient","type":"address","internalType":"address"},{"name":"amount","type":"uint256","internalType":"uint256"},{"name":"highAmountConfirmed","type":"bool","internalType":"bool"}],"outputs":[{"name":"allowedNow","type":"bool","internalType":"bool"},{"name":"blockedCode","type":"string","internalType":"string"},{"name":"waitSeconds","type":"uint256","internalType":"uint256"}],"stateMutability":"view"},{"type":"function","name":"getPolicy","inputs":[{"name":"sender","type":"address","internalType":"address"},{"name":"recipient","type":"address","internalType":"address"}],"outputs":[{"name":"policy","type":"tuple","internalType":"struct SafePayRemittance.RecipientPolicy","components":[{"name":"allowed","type":"bool","internalType":"bool"},{"name":"updatedAt","type":"uint64","internalType":"uint64"}]},{"name":"cooldownEndsAt","type":"uint256","internalType":"uint256"}],"stateMutability":"view"},{"type":"function","name":"getTransferReceiptHash","inputs":[{"name":"requestId","type":"uint256","internalType":"uint256"}],"outputs":[{"name":"","type":"bytes32","internalType":"bytes32"}],"stateMutability":"view"},{"type":"function","name":"getTransferRequest","inputs":[{"name":"requestId","type":"uint256","internalType":"uint256"}],"outputs":[{"name":"","type":"tuple","internalType":"struct SafePayRemittance.TransferRequest","components":[{"name":"id","type":"uint256","internalType":"uint256"},{"name":"sender","type":"address","internalType":"address"},{"name":"recipient","type":"address","internalType":"address"},{"name":"amount","type":"uint256","internalType":"uint256"},{"name":"idempotencyHash","type":"bytes32","internalType":"bytes32"},{"name":"requestedAt","type":"uint64","internalType":"uint64"},{"name":"updatedAt","type":"uint64","internalType":"uint64"},{"name":"status","type":"uint8","internalType":"enum SafePayRemittance.TransferStatus"},{"name":"lastTxHash","type":"bytes32","internalType":"bytes32"},{"name":"failureCode","type":"string","internalType":"string"}]}],"stateMutability":"view"},{"type":"function","name":"highAmountThreshold","inputs":[],"outputs":[{"name":"","type":"uint256","internalType":"uint256"}],"stateMutability":"view"},{"type":"function","name":"markConfirmed","inputs":[{"name":"requestId","type":"uint256","internalType":"uint256"},{"name":"txHash","type":"bytes32","internalType":"bytes32"}],"outputs":[],"stateMutability":"nonpayable"},{"type":"function","name":"markFailed","inputs":[{"name":"requestId","type":"uint256","internalType":"uint256"},{"name":"failureCode","type":"string","internalType":"string"}],"outputs":[],"stateMutability":"nonpayable"},{"type":"function","name":"markSubmitted","inputs":[{"name":"requestId","type":"uint256","internalType":"uint256"},{"name":"txHash","type":"bytes32","internalType":"bytes32"}],"outputs":[],"stateMutability":"nonpayable"},{"type":"function","name":"nextRequestId","inputs":[],"outputs":[{"name":"","type":"uint256","internalType":"uint256"}],"stateMutability":"view"},{"type":"function","name":"operators","inputs":[{"name":"","type":"address","internalType":"address"}],"outputs":[{"name":"","type":"bool","internalType":"bool"}],"stateMutability":"view"},{"type":"function","name":"owner","inputs":[],"outputs":[{"name":"","type":"address","internalType":"address"}],"stateMutability":"view"},{"type":"function","name":"recipientPolicies","inputs":[{"name":"","type":"address","internalType":"address"},{"name":"","type":"address","internalType":"address"}],"outputs":[{"name":"allowed","type":"bool","internalType":"bool"},{"name":"updatedAt","type":"uint64","internalType":"uint64"}],"stateMutability":"view"},{"type":"function","name":"requestIdByIdempotencyHash","inputs":[{"name":"","type":"bytes32","internalType":"bytes32"}],"outputs":[{"name":"","type":"uint256","internalType":"uint256"}],"stateMutability":"view"},{"type":"function","name":"requestTransfer","inputs":[{"name":"recipient","type":"address","internalType":"address"},{"name":"amount","type":"uint256","internalType":"uint256"},{"name":"idempotencyKey","type":"string","internalType":"string"},{"name":"highAmountConfirmed","type":"bool","internalType":"bool"}],"outputs":[{"name":"requestId","type":"uint256","internalType":"uint256"}],"stateMutability":"nonpayable"},{"type":"function","name":"setHighAmountThreshold","inputs":[{"name":"newThreshold","type":"uint256","internalType":"uint256"}],"outputs":[],"stateMutability":"nonpayable"},{"type":"function","name":"setOperator","inputs":[{"name":"operator","type":"address","internalType":"address"},{"name":"allowed","type":"bool","internalType":"bool"}],"outputs":[],"stateMutability":"nonpayable"},{"type":"function","name":"setRecipientAllow","inputs":[{"name":"recipient","type":"address","internalType":"address"},{"name":"allowed","type":"bool","internalType":"bool"}],"outputs":[],"stateMutability":"nonpayable"},{"type":"function","name":"token","inputs":[],"outputs":[{"name":"","type":"address","internalType":"contract IERC20Like"}],"stateMutability":"view"},{"type":"function","name":"transferOwnership","inputs":[{"name":"newOwner","type":"address","internalType":"address"}],"outputs":[],"stateMutability":"nonpayable"},{"type":"event","name":"HighAmountThresholdUpdated","inputs":[{"name":"previousThreshold","type":"uint256","indexed":false,"internalType":"uint256"},{"name":"newThreshold","type":"uint256","indexed":false,"internalType":"uint256"}],"anonymous":false},{"type":"event","name":"OperatorUpdated","inputs":[{"name":"operator","type":"address","indexed":true,"internalType":"address"},{"name":"allowed","type":"bool","indexed":false,"internalType":"bool"}],"anonymous":false},{"type":"event","name":"OwnershipTransferred","inputs":[{"name":"previousOwner","type":"address","indexed":true,"internalType":"address"},{"name":"newOwner","type":"address","indexed":true,"internalType":"address"}],"anonymous":false},{"type":"event","name":"RecipientPolicyUpdated","inputs":[{"name":"sender","type":"address","indexed":true,"internalType":"address"},{"name":"recipient","type":"address","indexed":true,"internalType":"address"},{"name":"allowed","type":"bool","indexed":false,"internalType":"bool"},{"name":"updatedAt","type":"uint256","indexed":false,"internalType":"uint256"}],"anonymous":false},{"type":"event","name":"TransferRequested","inputs":[{"name":"requestId","type":"uint256","indexed":true,"internalType":"uint256"},{"name":"sender","type":"address","indexed":true,"internalType":"address"},{"name":"recipient","type":"address","indexed":true,"internalType":"address"},{"name":"amount","type":"uint256","indexed":false,"internalType":"uint256"},{"name":"idempotencyHash","type":"bytes32","indexed":false,"internalType":"bytes32"}],"anonymous":false},{"type":"event","name":"TransferStatusChanged","inputs":[{"name":"requestId","type":"uint256","indexed":true,"internalType":"uint256"},{"name":"status","type":"uint8","indexed":false,"internalType":"enum SafePayRemittance.TransferStatus"},{"name":"txHash","type":"bytes32","indexed":false,"internalType":"bytes32"},{"name":"failureCode","type":"string","indexed":false,"internalType":"string"}],"anonymous":false},{"type":"error","name":"EmptyFailureCode","inputs":[]},{"type":"error","name":"EmptyIdempotencyKey","inputs":[]},{"type":"error","name":"InvalidAddress","inputs":[]},{"type":"error","name":"InvalidAmount","inputs":[]},{"type":"error","name":"InvalidStatusTransition","inputs":[{"name":"currentStatus","type":"uint8","internalType":"enum SafePayRemittance.TransferStatus"},{"name":"nextStatus","type":"uint8","internalType":"enum SafePayRemittance.TransferStatus"}]},{"type":"error","name":"InvalidTxHash","inputs":[]},{"type":"error","name":"NotOperator","inputs":[]},{"type":"error","name":"NotOwner","inputs":[]},{"type":"error","name":"PolicyBlocked","inputs":[{"name":"code","type":"string","internalType":"string"}]},{"type":"error","name":"TokenTransferFailed","inputs":[]},{"type":"error","name":"UnknownRequest","inputs":[]}],"bytecode":{"object":"0x60a06040526001600655348015610014575f80fd5b506040516119c03803806119c0833981016040819052610033916100fe565b6001600160a01b03821661005a5760405163e6c4247b60e01b815260040160405180910390fd5b6001600160a01b0382166080525f80546001600160a01b03191633908117825580825260026020526040808320805460ff19166001908117909155849055519091907f8be0079c531659141344cd1fd0a4f28419497f9722a3daafe3b4186f6b6457e0908290a36040516001815233907f966c160e1c4dbc7df8d69af4ace01e9297c3cf016397b7914971f2fbfa32672d9060200160405180910390a25050610135565b5f806040838503121561010f575f80fd5b82516001600160a01b0381168114610125575f80fd5b6020939093015192949293505050565b60805161186c6101545f395f818161036101526104ac015261186c5ff3fe608060405234801561000f575f80fd5b5060043610610127575f3560e01c806360d7cb8e116100a9578063a92838c91161006e578063a92838c9146102bb578063d4c341aa146102ce578063e2dcf5341461032a578063f2fde38b14610349578063fc0c546a1461035c575f80fd5b806360d7cb8e1461024d5780636a84a9851461026057806372b49d63146102695780638da5cb5b1461027157806399807e4c1461029b575f80fd5b80633940fda4116100ef5780633940fda4146101df5780634f7c039a146101f257806354bb34d414610205578063558a729714610227578063570d07fe1461023a575f80fd5b80630497f4f91461012b57806313e7c9d81461014057806325893578146101775780632911a64b1461018a578063317eaaa3146101a1575b5f80fd5b61013e6101393660046110fb565b610383565b005b61016261014e366004611131565b60026020525f908152604090205460ff1681565b60405190151581526020015b60405180910390f35b61013e610185366004611151565b610564565b61019360015481565b60405190815260200161016e565b6101b46101af366004611168565b6105cf565b604080518351151581526020938401516001600160401b03169381019390935282015260600161016e565b61013e6101ed3660046111d4565b61063d565b61019361020036600461122b565b610762565b610218610213366004611297565b6109ec565b60405161016e93929190611326565b61013e610235366004611350565b610b62565b61013e6102483660046110fb565b610c11565b61013e61025b366004611350565b610d23565b61019360065481565b610193603c81565b5f54610283906001600160a01b031681565b6040516001600160a01b03909116815260200161016e565b6102ae6102a9366004611151565b610de5565b60405161016e91906113b9565b6101936102c9366004611151565b610f83565b61030b6102dc366004611168565b600360209081525f928352604080842090915290825290205460ff81169061010090046001600160401b031682565b6040805192151583526001600160401b0390911660208301520161016e565b610193610338366004611151565b60056020525f908152604090205481565b61013e610357366004611131565b61101d565b6102837f000000000000000000000000000000000000000000000000000000000000000081565b335f9081526002602052604090205460ff166103b257604051631f0853c160e21b815260040160405180910390fd5b806103d0576040516319cb4eb360e31b815260040160405180910390fd5b5f6103da836110c7565b905060026005820154600160801b900460ff1660048111156103fe576103fe611385565b1461043857600581015460405163e3962ba360e01b815261042f91600160801b900460ff169060039060040161147c565b60405180910390fd5b600581018054600683018490556001600160401b034216600160401b0268ffffffffffffffffff60401b1990911617600360801b1790556001810154600282015460038301546040516323b872dd60e01b81526001600160a01b039384166004820152918316602483015260448201525f917f000000000000000000000000000000000000000000000000000000000000000016906323b872dd906064016020604051808303815f875af11580156104f2573d5f803e3d5ffd5b505050506040513d601f19601f820116820180604052508101906105169190611497565b9050806105365760405163022e258160e11b815260040160405180910390fd5b835f805160206118178339815191526003856040516105569291906114b2565b60405180910390a250505050565b5f546001600160a01b0316331461058e576040516330cd747160e01b815260040160405180910390fd5b60015460408051918252602082018390527f065db0ae50ef763d4be2fc4dac055e2f5614651026714a9c734787055fd38a88910160405180910390a1600155565b6040805180820182525f80825260209182018190526001600160a01b038581168252600383528382209085168252825282812083518085019094525460ff81161515845261010090046001600160401b03169183018290529061063490603c906114ee565b90509250929050565b335f9081526002602052604090205460ff1661066c57604051631f0853c160e21b815260040160405180910390fd5b5f81900361068d57604051630a3291bf60e21b815260040160405180910390fd5b5f610697846110c7565b905060026005820154600160801b900460ff1660048111156106bb576106bb611385565b146106eb57600581015460405163e3962ba360e01b815261042f91600160801b900460ff1690600490810161147c565b60058101805460ff60801b1916600160821b1790556007810161070f83858361159f565b506005810180546fffffffffffffffff00000000000000001916600160401b426001600160401b03160217905560405184905f8051602061181783398151915290610556906004905f9088908890611680565b5f6001600160a01b03861661078a5760405163e6c4247b60e01b815260040160405180910390fd5b845f036107aa5760405163162908e360e11b815260040160405180910390fd5b5f8390036107cb57604051639985380d60e01b815260040160405180910390fd5b5f3385856040516020016107e1939291906116b0565b60408051601f1981840301815291815281516020928301205f818152600590935291205490915080156108175791506109e39050565b5f80610825338b8b896109ec565b50915091508161084a57806040516326f8505b60e21b815260040161042f91906116d4565b60068054905f610859836116e6565b9190505594505f60045f8781526020019081526020015f20905085815f018190555033816001015f6101000a8154816001600160a01b0302191690836001600160a01b031602179055508a816002015f6101000a8154816001600160a01b0302191690836001600160a01b0316021790555089816003018190555084816004018190555042816005015f6101000a8154816001600160401b0302191690836001600160401b03160217905550428160050160086101000a8154816001600160401b0302191690836001600160401b0316021790555060018160050160106101000a81548160ff0219169083600481111561095557610955611385565b02179055505f8581526005602090815260409182902088905581518c81529081018790526001600160a01b038d1691339189917ffe81ef21690e61aa5c45e3426cec32ef3128d2cdf8017f63ad546cdd4fb380a3910160405180910390a4855f8051602061181783398151915260015f801b6040516109d59291906114b2565b60405180910390a250505050505b95945050505050565b6001600160a01b038481165f908152600360209081526040808320938716835292815282822083518085019094525460ff811615158085526101009091046001600160401b0316918401919091529091606091839190610a7f575050604080518082019091526015815274149150d2541251539517d393d517d0531313d5d151605a1b60208201525f9250905081610b58565b5f603c82602001516001600160401b0316610a9a91906114ee565b905080421015610ae5575f610aaf42836116fe565b6040518060400160405280600f81526020016e434f4f4c444f574e5f41435449564560881b815250909450945094505050610b58565b60015487118015610af4575085155b15610b3c57505060408051808201909152601c81527f484947485f414d4f554e545f434f4e4649524d5f52455155495245440000000060208201525f93509150829050610b58565b60015f60405180602001604052805f8152509094509450945050505b9450945094915050565b5f546001600160a01b03163314610b8c576040516330cd747160e01b815260040160405180910390fd5b6001600160a01b038216610bb35760405163e6c4247b60e01b815260040160405180910390fd5b6001600160a01b0382165f81815260026020908152604091829020805460ff191685151590811790915591519182527f966c160e1c4dbc7df8d69af4ace01e9297c3cf016397b7914971f2fbfa32672d910160405180910390a25050565b335f9081526002602052604090205460ff16610c4057604051631f0853c160e21b815260040160405180910390fd5b80610c5e576040516319cb4eb360e31b815260040160405180910390fd5b5f610c68836110c7565b905060016005820154600160801b900460ff166004811115610c8c57610c8c611385565b14610cbd57600581015460405163e3962ba360e01b815261042f91600160801b900460ff169060029060040161147c565b600581018054600683018490556001600160401b034216600160401b0268ffffffffffffffffff60401b1990911617600160811b17905560405183905f8051602061181783398151915290610d169060029086906114b2565b60405180910390a2505050565b6001600160a01b038216610d4a5760405163e6c4247b60e01b815260040160405180910390fd5b335f8181526003602090815260408083206001600160a01b0387168085529083529281902080546001600160401b03429081166101000268ffffffffffffffff001989151590811668ffffffffffffffffff199094169390931717835583519182529381019390935293917f7407188cc92552a1972fc90c6c19a504d14efbdb23a791190f9358f8fd1a346d910160405180910390a3505050565b610e3960408051610140810182525f80825260208201819052918101829052606081018290526080810182905260a0810182905260c081018290529060e082019081525f6020820152606060409091015290565b610e42826110c7565b60408051610140810182528254815260018301546001600160a01b0390811660208301526002840154169181019190915260038201546060820152600480830154608083015260058301546001600160401b0380821660a0850152600160401b82041660c084015291929160e0840191600160801b90910460ff1690811115610ecd57610ecd611385565b6004811115610ede57610ede611385565b815260200160068201548152602001600782018054610efc9061151b565b80601f0160208091040260200160405190810160405280929190818152602001828054610f289061151b565b8015610f735780601f10610f4a57610100808354040283529160200191610f73565b820191905f5260205f20905b815481529060010190602001808311610f5657829003601f168201915b5050505050815250509050919050565b5f80610f8e836110c7565b8054600182015460028301546003840154600585015460068601546004870154604051979850610fff974697309790966001600160a01b0391821696911694909360ff600160801b83041693909260078d01926001600160401b0380821693600160401b9092041691602001611711565b60405160208183030381529060405280519060200120915050919050565b5f546001600160a01b03163314611047576040516330cd747160e01b815260040160405180910390fd5b6001600160a01b03811661106e5760405163e6c4247b60e01b815260040160405180910390fd5b5f80546040516001600160a01b03808516939216917f8be0079c531659141344cd1fd0a4f28419497f9722a3daafe3b4186f6b6457e091a35f80546001600160a01b0319166001600160a01b0392909216919091179055565b5f81815260046020526040812080549091036110f657604051636d08029760e01b815260040160405180910390fd5b919050565b5f806040838503121561110c575f80fd5b50508035926020909101359150565b80356001600160a01b03811681146110f6575f80fd5b5f60208284031215611141575f80fd5b61114a8261111b565b9392505050565b5f60208284031215611161575f80fd5b5035919050565b5f8060408385031215611179575f80fd5b6111828361111b565b91506106346020840161111b565b5f8083601f8401126111a0575f80fd5b5081356001600160401b038111156111b6575f80fd5b6020830191508360208285010111156111cd575f80fd5b9250929050565b5f805f604084860312156111e6575f80fd5b8335925060208401356001600160401b03811115611202575f80fd5b61120e86828701611190565b9497909650939450505050565b8015158114611228575f80fd5b50565b5f805f805f6080868803121561123f575f80fd5b6112488661111b565b94506020860135935060408601356001600160401b03811115611269575f80fd5b61127588828901611190565b90945092505060608601356112898161121b565b809150509295509295909350565b5f805f80608085870312156112aa575f80fd5b6112b38561111b565b93506112c16020860161111b565b92506040850135915060608501356112d88161121b565b939692955090935050565b5f81518084525f5b81811015611307576020818501810151868301820152016112eb565b505f602082860101526020601f19601f83011685010191505092915050565b8315158152606060208201525f61134060608301856112e3565b9050826040830152949350505050565b5f8060408385031215611361575f80fd5b61136a8361111b565b9150602083013561137a8161121b565b809150509250929050565b634e487b7160e01b5f52602160045260245ffd5b600581106113b557634e487b7160e01b5f52602160045260245ffd5b9052565b60208152815160208201525f60208301516113df60408401826001600160a01b03169052565b5060408301516001600160a01b03811660608401525060608301516080830152608083015160a083015260a083015161142360c08401826001600160401b03169052565b5060c08301516001600160401b03811660e08401525060e083015161010061144d81850183611399565b840151610120848101919091528401516101408085015290506114746101608401826112e3565b949350505050565b6040810161148a8285611399565b61114a6020830184611399565b5f602082840312156114a7575f80fd5b815161114a8161121b565b6114bc8184611399565b60208101919091526060604082018190525f90820152608001919050565b634e487b7160e01b5f52601160045260245ffd5b80820180821115611501576115016114da565b92915050565b634e487b7160e01b5f52604160045260245ffd5b600181811c9082168061152f57607f821691505b60208210810361154d57634e487b7160e01b5f52602260045260245ffd5b50919050565b601f82111561159a57805f5260205f20601f840160051c810160208510156115785750805b601f840160051c820191505b81811015611597575f8155600101611584565b50505b505050565b6001600160401b038311156115b6576115b6611507565b6115ca836115c4835461151b565b83611553565b5f601f8411600181146115fb575f85156115e45750838201355b5f19600387901b1c1916600186901b178355611597565b5f83815260208120601f198716915b8281101561162a578685013582556020948501946001909201910161160a565b5086821015611646575f1960f88860031b161c19848701351681555b505060018560011b0183555050505050565b81835281816020850137505f828201602090810191909152601f909101601f19169091010190565b61168a8186611399565b836020820152606060408201525f6116a6606083018486611658565b9695505050505050565b6001600160a01b03841681526040602082018190525f906109e39083018486611658565b602081525f61114a60208301846112e3565b5f600182016116f7576116f76114da565b5060010190565b81810381811115611501576115016114da565b8c81526001600160a01b038c81166020830152604082018c90528a811660608301528916608082015260a081018890525f61018061175260c084018a611399565b8760e0840152806101008401525f875461176b8161151b565b9285018390526101a0926001828116801561178d57600181146117a7576117d4565b60ff1984168887015282151560051b8801860194506117d4565b8b5f5260205f205f5b848110156117cc5781548a8201890152908301906020016117b0565b890187019550505b5050506001600160401b0388166101208601525091506117f19050565b6001600160401b039390931661014082015261016001529a995050505050505050505056fe13fefd62b0c9f730fa6060f9f859b525b1e01561bd0b3bd2024f6c95288fa5b4a2646970667358221220dac21779890fe4674cbda9d571cdc31095315210374a0102323a8e48ef22220c64736f6c63430008180033","linkReferences":{}},"methodIdentifiers":{"COOLDOWN_SECONDS()":"72b49d63","canTransferNow(address,address,uint256,bool)":"54bb34d4","getPolicy(address,address)":"317eaaa3","getTransferReceiptHash(uint256)":"a92838c9","getTransferRequest(uint256)":"99807e4c","highAmountThreshold()":"2911a64b","markConfirmed(uint256,bytes32)":"0497f4f9","markFailed(uint256,string)":"3940fda4","markSubmitted(uint256,bytes32)":"570d07fe","nextRequestId()":"6a84a985","operators(address)":"13e7c9d8","owner()":"8da5cb5b","recipientPolicies(address,address)":"d4c341aa","requestIdByIdempotencyHash(bytes32)":"e2dcf534","requestTransfer(address,uint256,string,bool)":"4f7c039a","setHighAmountThreshold(uint256)":"25893578","setOperator(address,bool)":"558a7297","setRecipientAllow(address,bool)":"60d7cb8e","token()":"fc0c546a","transferOwnership(address)":"f2fde38b"},"id":23}