{"abi":[{"type":"constructor","inputs":[],"stateMutability":"nonpayable"},{"type":"function","name":"getProof","inputs":[{"name":"proofId","type":"bytes32","internalType":"bytes32"}],"outputs":[{"name":"","type":"tuple","internalType":"struct DocumentHashRegistry.DocumentProof","components":[{"name":"payloadHash","type":"bytes32","internalType":"bytes32"},{"name":"createdAt","type":"uint64","internalType":"uint64"},{"name":"itemCount","type":"uint32","internalType":"uint32"},{"name":"issuer","type":"address","internalType":"address"},{"name":"docType","type":"string","internalType":"string"},{"name":"sourceRef","type":"string","internalType":"string"}]}],"stateMutability":"view"},{"type":"function","name":"operators","inputs":[{"name":"","type":"address","internalType":"address"}],"outputs":[{"name":"","type":"bool","internalType":"bool"}],"stateMutability":"view"},{"type":"function","name":"owner","inputs":[],"outputs":[{"name":"","type":"address","internalType":"address"}],"stateMutability":"view"},{"type":"function","name":"registerProof","inputs":[{"name":"proofId","type":"bytes32","internalType":"bytes32"},{"name":"payloadHash","type":"bytes32","internalType":"bytes32"},{"name":"docType","type":"string","internalType":"string"},{"name":"sourceRef","type":"string","internalType":"string"},{"name":"itemCount","type":"uint32","internalType":"uint32"}],"outputs":[],"stateMutability":"nonpayable"},{"type":"function","name":"setOperator","inputs":[{"name":"operator","type":"address","internalType":"address"},{"name":"allowed","type":"bool","internalType":"bool"}],"outputs":[],"stateMutability":"nonpayable"},{"type":"function","name":"transferOwnership","inputs":[{"name":"newOwner","type":"address","internalType":"address"}],"outputs":[],"stateMutability":"nonpayable"},{"type":"function","name":"verifyProof","inputs":[{"name":"proofId","type":"bytes32","internalType":"bytes32"},{"name":"payloadHash","type":"bytes32","internalType":"bytes32"}],"outputs":[{"name":"","type":"bool","internalType":"bool"}],"stateMutability":"view"},{"type":"event","name":"DocumentProofRegistered","inputs":[{"name":"proofId","type":"bytes32","indexed":true,"internalType":"bytes32"},{"name":"payloadHash","type":"bytes32","indexed":true,"internalType":"bytes32"},{"name":"docType","type":"string","indexed":false,"internalType":"string"},{"name":"sourceRef","type":"string","indexed":false,"internalType":"string"},{"name":"itemCount","type":"uint32","indexed":false,"internalType":"uint32"},{"name":"issuer","type":"address","indexed":true,"internalType":"address"},{"name":"createdAt","type":"uint256","indexed":false,"internalType":"uint256"}],"anonymous":false},{"type":"event","name":"OperatorUpdated","inputs":[{"name":"operator","type":"address","indexed":true,"internalType":"address"},{"name":"allowed","type":"bool","indexed":false,"internalType":"bool"}],"anonymous":false},{"type":"event","name":"OwnershipTransferred","inputs":[{"name":"previousOwner","type":"address","indexed":true,"internalType":"address"},{"name":"newOwner","type":"address","indexed":true,"internalType":"address"}],"anonymous":false},{"type":"error","name":"EmptyDocType","inputs":[]},{"type":"error","name":"EmptySourceRef","inputs":[]},{"type":"error","name":"InvalidAddress","inputs":[]},{"type":"error","name":"InvalidHash","inputs":[]},{"type":"error","name":"InvalidItemCount","inputs":[]},{"type":"error","name":"NotOperator","inputs":[]},{"type":"error","name":"NotOwner","inputs":[]},{"type":"error","name":"ProofAlreadyExists","inputs":[]},{"type":"error","name":"UnknownProof","inputs":[]}],"bytecode":{"object":"0x608060405234801561000f575f80fd5b505f80546001600160a01b031916339081178255808252600160208190526040808420805460ff1916909217909155519091907f8be0079c531659141344cd1fd0a4f28419497f9722a3daafe3b4186f6b6457e0908290a36040516001815233907f966c160e1c4dbc7df8d69af4ace01e9297c3cf016397b7914971f2fbfa32672d9060200160405180910390a2610d2a806100aa5f395ff3fe608060405234801561000f575f80fd5b506004361061007a575f3560e01c8063739808e511610058578063739808e5146100ea57806374fdf3a2146100fd5780638da5cb5b14610110578063f2fde38b1461013a575f80fd5b806313e7c9d81461007e5780631b80bb3a146100b5578063558a7297146100d5575b5f80fd5b6100a061008c366004610901565b60016020525f908152604090205460ff1681565b60405190151581526020015b60405180910390f35b6100c86100c3366004610921565b61014d565b6040516100ac919061097b565b6100e86100e33660046109fc565b610337565b005b6100a06100f8366004610a35565b6103e6565b6100e861010b366004610a9a565b610595565b5f54610122906001600160a01b031681565b6040516001600160a01b0390911681526020016100ac565b6100e8610148366004610901565b61083c565b6040805160c0810182525f808252602082018190529181018290526060808201929092526080810182905260a08101919091525f828152600260208181526040808420815160c08101835281548152600182015467ffffffffffffffff811694820194909452600160401b840463ffffffff1692810192909252600160601b9092046001600160a01b0316606082015291810180546080840191906101f190610b32565b80601f016020809104026020016040519081016040528092919081815260200182805461021d90610b32565b80156102685780601f1061023f57610100808354040283529160200191610268565b820191905f5260205f20905b81548152906001019060200180831161024b57829003601f168201915b5050505050815260200160038201805461028190610b32565b80601f01602080910402602001604051908101604052809291908181526020018280546102ad90610b32565b80156102f85780601f106102cf576101008083540402835291602001916102f8565b820191905f5260205f20905b8154815290600101906020018083116102db57829003601f168201915b5050505050815250509050806020015167ffffffffffffffff165f0361033157604051631c21853d60e21b815260040160405180910390fd5b92915050565b5f546001600160a01b03163314610361576040516330cd747160e01b815260040160405180910390fd5b6001600160a01b0382166103885760405163e6c4247b60e01b815260040160405180910390fd5b6001600160a01b0382165f81815260016020908152604091829020805460ff191685151590811790915591519182527f966c160e1c4dbc7df8d69af4ace01e9297c3cf016397b7914971f2fbfa32672d910160405180910390a25050565b5f828152600260208181526040808420815160c08101835281548152600182015467ffffffffffffffff811694820194909452600160401b840463ffffffff1692810192909252600160601b9092046001600160a01b03166060820152918101805484939291608084019161045a90610b32565b80601f016020809104026020016040519081016040528092919081815260200182805461048690610b32565b80156104d15780601f106104a8576101008083540402835291602001916104d1565b820191905f5260205f20905b8154815290600101906020018083116104b457829003601f168201915b505050505081526020016003820180546104ea90610b32565b80601f016020809104026020016040519081016040528092919081815260200182805461051690610b32565b80156105615780601f1061053857610100808354040283529160200191610561565b820191905f5260205f20905b81548152906001019060200180831161054457829003601f168201915b5050505050815250509050806020015167ffffffffffffffff165f0361058a575f915050610331565b518214905092915050565b335f9081526001602052604090205460ff166105c457604051631f0853c160e21b815260040160405180910390fd5b8615806105cf575085155b156105ec576040516257c03760e51b815260040160405180910390fd5b5f84900361060d576040516328eff07960e21b815260040160405180910390fd5b5f82900361062e57604051636f0a078b60e11b815260040160405180910390fd5b8063ffffffff165f036106545760405163e464bf7560e01b815260040160405180910390fd5b5f8781526002602052604090206001015467ffffffffffffffff161561068d5760405163b8cdb9bd60e01b815260040160405180910390fd5b6040518060c001604052808781526020014267ffffffffffffffff1681526020018263ffffffff168152602001336001600160a01b0316815260200186868080601f0160208091040260200160405190810160405280939291908181526020018383808284375f92019190915250505090825250604080516020601f8701819004810282018101909252858152918101919086908690819084018382808284375f9201829052509390945250508981526002602081815260409283902085518155908501516001820180549487015160608801516001600160a01b0316600160601b026bffffffffffffffffffffffff63ffffffff909216600160401b026bffffffffffffffffffffffff1990971667ffffffffffffffff9094169390931795909517949094161790925560808401519192508201906107cd9082610bca565b5060a082015160038201906107e29082610bca565b50905050336001600160a01b031686887fe4311f915537b9cc800994ea0ca348b926f3781aa15821ec9a7ad0c506d18e6088888888884260405161082b96959493929190610cb2565b60405180910390a450505050505050565b5f546001600160a01b03163314610866576040516330cd747160e01b815260040160405180910390fd5b6001600160a01b03811661088d5760405163e6c4247b60e01b815260040160405180910390fd5b5f80546040516001600160a01b03808516939216917f8be0079c531659141344cd1fd0a4f28419497f9722a3daafe3b4186f6b6457e091a35f80546001600160a01b0319166001600160a01b0392909216919091179055565b80356001600160a01b03811681146108fc575f80fd5b919050565b5f60208284031215610911575f80fd5b61091a826108e6565b9392505050565b5f60208284031215610931575f80fd5b5035919050565b5f81518084525f5b8181101561095c57602081850181015186830182015201610940565b505f602082860101526020601f19601f83011685010191505092915050565b602081528151602082015267ffffffffffffffff602083015116604082015263ffffffff604083015116606082015260018060a01b0360608301511660808201525f608083015160c060a08401526109d660e0840182610938565b905060a0840151601f198483030160c08501526109f38282610938565b95945050505050565b5f8060408385031215610a0d575f80fd5b610a16836108e6565b915060208301358015158114610a2a575f80fd5b809150509250929050565b5f8060408385031215610a46575f80fd5b50508035926020909101359150565b5f8083601f840112610a65575f80fd5b50813567ffffffffffffffff811115610a7c575f80fd5b602083019150836020828501011115610a93575f80fd5b9250929050565b5f805f805f805f60a0888a031215610ab0575f80fd5b8735965060208801359550604088013567ffffffffffffffff80821115610ad5575f80fd5b610ae18b838c01610a55565b909750955060608a0135915080821115610af9575f80fd5b50610b068a828b01610a55565b909450925050608088013563ffffffff81168114610b22575f80fd5b8091505092959891949750929550565b600181811c90821680610b4657607f821691505b602082108103610b6457634e487b7160e01b5f52602260045260245ffd5b50919050565b634e487b7160e01b5f52604160045260245ffd5b601f821115610bc557805f5260205f20601f840160051c81016020851015610ba35750805b601f840160051c820191505b81811015610bc2575f8155600101610baf565b50505b505050565b815167ffffffffffffffff811115610be457610be4610b6a565b610bf881610bf28454610b32565b84610b7e565b602080601f831160018114610c2b575f8415610c145750858301515b5f19600386901b1c1916600185901b178555610c82565b5f85815260208120601f198616915b82811015610c5957888601518255948401946001909101908401610c3a565b5085821015610c7657878501515f19600388901b60f8161c191681555b505060018460011b0185555b505050505050565b81835281816020850137505f828201602090810191909152601f909101601f19169091010190565b608081525f610cc560808301888a610c8a565b8281036020840152610cd8818789610c8a565b63ffffffff95909516604084015250506060015294935050505056fea26469706673582212202d5fec78a5fc6790b28f7dd3bdec8eff161da82a9b436e820bf4f2e7fdfb521764736f6c63430008180033","linkReferences":{}},"methodIdentifiers":{"getProof(bytes32)":"1b80bb3a","operators(address)":"13e7c9d8","owner()":"8da5cb5b","registerProof(bytes32,bytes32,string,string,uint32)":"74fdf3a2","setOperator(address,bool)":"558a7297","transferOwnership(address)":"f2fde38b","verifyProof(bytes32,bytes32)":"739808e5"},"id":20}