{"abi":[{"type":"constructor","inputs":[{"name":"_name","type":"string","internalType":"string"},{"name":"_symbol","type":"string","internalType":"string"},{"name":"_decimals","type":"uint8","internalType":"uint8"}],"stateMutability":"nonpayable"},{"type":"function","name":"allowance","inputs":[{"name":"","type":"address","internalType":"address"},{"name":"","type":"address","internalType":"address"}],"outputs":[{"name":"","type":"uint256","internalType":"uint256"}],"stateMutability":"view"},{"type":"function","name":"approve","inputs":[{"name":"spender","type":"address","internalType":"address"},{"name":"amount","type":"uint256","internalType":"uint256"}],"outputs":[{"name":"","type":"bool","internalType":"bool"}],"stateMutability":"nonpayable"},{"type":"function","name":"balanceOf","inputs":[{"name":"","type":"address","internalType":"address"}],"outputs":[{"name":"","type":"uint256","internalType":"uint256"}],"stateMutability":"view"},{"type":"function","name":"decimals","inputs":[],"outputs":[{"name":"","type":"uint8","internalType":"uint8"}],"stateMutability":"view"},{"type":"function","name":"mint","inputs":[{"name":"to","type":"address","internalType":"address"},{"name":"amount","type":"uint256","internalType":"uint256"}],"outputs":[],"stateMutability":"nonpayable"},{"type":"function","name":"name","inputs":[],"outputs":[{"name":"","type":"string","internalType":"string"}],"stateMutability":"view"},{"type":"function","name":"owner","inputs":[],"outputs":[{"name":"","type":"address","internalType":"address"}],"stateMutability":"view"},{"type":"function","name":"symbol","inputs":[],"outputs":[{"name":"","type":"string","internalType":"string"}],"stateMutability":"view"},{"type":"function","name":"totalSupply","inputs":[],"outputs":[{"name":"","type":"uint256","internalType":"uint256"}],"stateMutability":"view"},{"type":"function","name":"transfer","inputs":[{"name":"to","type":"address","internalType":"address"},{"name":"amount","type":"uint256","internalType":"uint256"}],"outputs":[{"name":"","type":"bool","internalType":"bool"}],"stateMutability":"nonpayable"},{"type":"function","name":"transferFrom","inputs":[{"name":"from","type":"address","internalType":"address"},{"name":"to","type":"address","internalType":"address"},{"name":"amount","type":"uint256","internalType":"uint256"}],"outputs":[{"name":"","type":"bool","internalType":"bool"}],"stateMutability":"nonpayable"},{"type":"function","name":"transferOwnership","inputs":[{"name":"newOwner","type":"address","internalType":"address"}],"outputs":[],"stateMutability":"nonpayable"},{"type":"event","name":"Approval","inputs":[{"name":"owner","type":"address","indexed":true,"internalType":"address"},{"name":"spender","type":"address","indexed":true,"internalType":"address"},{"name":"amount","type":"uint256","indexed":false,"internalType":"uint256"}],"anonymous":false},{"type":"event","name":"OwnershipTransferred","inputs":[{"name":"previousOwner","type":"address","indexed":true,"internalType":"address"},{"name":"newOwner","type":"address","indexed":true,"internalType":"address"}],"anonymous":false},{"type":"event","name":"Transfer","inputs":[{"name":"from","type":"address","indexed":true,"internalType":"address"},{"name":"to","type":"address","indexed":true,"internalType":"address"},{"name":"amount","type":"uint256","indexed":false,"internalType":"uint256"}],"anonymous":false},{"type":"error","name":"InsufficientAllowance","inputs":[]},{"type":"error","name":"InsufficientBalance","inputs":[]},{"type":"error","name":"InvalidAddress","inputs":[]},{"type":"error","name":"NotOwner","inputs":[]}],"bytecode":{"object":"0x60a060405234801562000010575f80fd5b5060405162000b7c38038062000b7c833981016040819052620000339162000160565b5f62000040848262000269565b5060016200004f838262000269565b5060ff8116608052600380546001600160a01b031916339081179091556040515f907f8be0079c531659141344cd1fd0a4f28419497f9722a3daafe3b4186f6b6457e0908290a350505062000335565b634e487b7160e01b5f52604160045260245ffd5b5f82601f830112620000c3575f80fd5b81516001600160401b0380821115620000e057620000e06200009f565b604051601f8301601f19908116603f011681019082821181831017156200010b576200010b6200009f565b816040528381526020925086602085880101111562000128575f80fd5b5f91505b838210156200014b57858201830151818301840152908201906200012c565b5f602085830101528094505050505092915050565b5f805f6060848603121562000173575f80fd5b83516001600160401b03808211156200018a575f80fd5b6200019887838801620000b3565b94506020860151915080821115620001ae575f80fd5b50620001bd86828701620000b3565b925050604084015160ff81168114620001d4575f80fd5b809150509250925092565b600181811c90821680620001f457607f821691505b6020821081036200021357634e487b7160e01b5f52602260045260245ffd5b50919050565b601f8211156200026457805f5260205f20601f840160051c81016020851015620002405750805b601f840160051c820191505b8181101562000261575f81556001016200024c565b50505b505050565b81516001600160401b038111156200028557620002856200009f565b6200029d81620002968454620001df565b8462000219565b602080601f831160018114620002d3575f8415620002bb5750858301515b5f19600386901b1c1916600185901b1785556200032d565b5f85815260208120601f198616915b828110156200030357888601518255948401946001909101908401620002e2565b50858210156200032157878501515f19600388901b60f8161c191681555b505060018460011b0185555b505050505050565b60805161082e6200034e5f395f610125015261082e5ff3fe608060405234801561000f575f80fd5b50600436106100b1575f3560e01c806370a082311161006e57806370a082311461016e5780638da5cb5b1461018d57806395d89b41146101b8578063a9059cbb146101c0578063dd62ed3e146101d3578063f2fde38b146101fd575f80fd5b806306fdde03146100b5578063095ea7b3146100d357806318160ddd146100f657806323b872dd1461010d578063313ce5671461012057806340c10f1914610159575b5f80fd5b6100bd610210565b6040516100ca919061066d565b60405180910390f35b6100e66100e13660046106d4565b61029b565b60405190151581526020016100ca565b6100ff60025481565b6040519081526020016100ca565b6100e661011b3660046106fc565b610307565b6101477f000000000000000000000000000000000000000000000000000000000000000081565b60405160ff90911681526020016100ca565b61016c6101673660046106d4565b6103cd565b005b6100ff61017c366004610735565b60046020525f908152604090205481565b6003546101a0906001600160a01b031681565b6040516001600160a01b0390911681526020016100ca565b6100bd6104a5565b6100e66101ce3660046106d4565b6104b2565b6100ff6101e1366004610755565b600560209081525f928352604080842090915290825290205481565b61016c61020b366004610735565b6104c7565b5f805461021c90610786565b80601f016020809104026020016040519081016040528092919081815260200182805461024890610786565b80156102935780601f1061026a57610100808354040283529160200191610293565b820191905f5260205f20905b81548152906001019060200180831161027657829003601f168201915b505050505081565b335f8181526005602090815260408083206001600160a01b038716808552925280832085905551919290917f8c5be1e5ebec7d5bd14f71427d1e84f3dd0314c0f7b2291e5b200ac8c7c3b925906102f59086815260200190565b60405180910390a35060015b92915050565b6001600160a01b0383165f9081526005602090815260408083203384529091528120548281101561034b576040516313be252b60e01b815260040160405180910390fd5b5f1981146103b75761035d83826107d2565b6001600160a01b0386165f81815260056020908152604080832033808552908352928190208590555193845290927f8c5be1e5ebec7d5bd14f71427d1e84f3dd0314c0f7b2291e5b200ac8c7c3b925910160405180910390a35b6103c2858585610574565b506001949350505050565b6003546001600160a01b031633146103f8576040516330cd747160e01b815260040160405180910390fd5b6001600160a01b03821661041f5760405163e6c4247b60e01b815260040160405180910390fd5b8060025f82825461043091906107e5565b90915550506001600160a01b0382165f908152600460205260408120805483929061045c9084906107e5565b90915550506040518181526001600160a01b038316905f907fddf252ad1be2c89b69c2b068fc378daa952ba7f163c4a11628f55a4df523b3ef9060200160405180910390a35050565b6001805461021c90610786565b5f6104be338484610574565b50600192915050565b6003546001600160a01b031633146104f2576040516330cd747160e01b815260040160405180910390fd5b6001600160a01b0381166105195760405163e6c4247b60e01b815260040160405180910390fd5b6003546040516001600160a01b038084169216907f8be0079c531659141344cd1fd0a4f28419497f9722a3daafe3b4186f6b6457e0905f90a3600380546001600160a01b0319166001600160a01b0392909216919091179055565b6001600160a01b03821661059b5760405163e6c4247b60e01b815260040160405180910390fd5b6001600160a01b0383165f90815260046020526040902054818110156105d457604051631e9acf1760e31b815260040160405180910390fd5b6105de82826107d2565b6001600160a01b038086165f9081526004602052604080822093909355908516815290812080548492906106139084906107e5565b92505081905550826001600160a01b0316846001600160a01b03167fddf252ad1be2c89b69c2b068fc378daa952ba7f163c4a11628f55a4df523b3ef8460405161065f91815260200190565b60405180910390a350505050565b5f602080835283518060208501525f5b818110156106995785810183015185820160400152820161067d565b505f604082860101526040601f19601f8301168501019250505092915050565b80356001600160a01b03811681146106cf575f80fd5b919050565b5f80604083850312156106e5575f80fd5b6106ee836106b9565b946020939093013593505050565b5f805f6060848603121561070e575f80fd5b610717846106b9565b9250610725602085016106b9565b9150604084013590509250925092565b5f60208284031215610745575f80fd5b61074e826106b9565b9392505050565b5f8060408385031215610766575f80fd5b61076f836106b9565b915061077d602084016106b9565b90509250929050565b600181811c9082168061079a57607f821691505b6020821081036107b857634e487b7160e01b5f52602260045260245ffd5b50919050565b634e487b7160e01b5f52601160045260245ffd5b81810381811115610301576103016107be565b80820180821115610301576103016107be56fea264697066735822122020900aeb22d50bdaa2eb290ebd40036c75a9ac8e200d985e20dfb0454b569d7f64736f6c63430008180033","linkReferences":{}},"methodIdentifiers":{"allowance(address,address)":"dd62ed3e","approve(address,uint256)":"095ea7b3","balanceOf(address)":"70a08231","decimals()":"313ce567","mint(address,uint256)":"40c10f19","name()":"06fdde03","owner()":"8da5cb5b","symbol()":"95d89b41","totalSupply()":"18160ddd","transfer(address,uint256)":"a9059cbb","transferFrom(address,address,uint256)":"23b872dd","transferOwnership(address)":"f2fde38b"},"id":19}